:100000000C942A000C943F000C943F000C943F0089
:100010000C943F000C943F000C943F000C943F0064
:100020000C943F000C943F000C943F000C943F0054
:100030000C943F000C943F000C943F000C943F0044
:100040000C943F000C943F000C943F000C943F0034
:100050000C943F0011241FBECFE5D8E0DEBFCDBF1A
:1000600010E0A0E6B0E0E0EEF4E002C005900D92F2
:10007000AA36B107D9F70E9497010C946E020C942E
:100080000000683008F078C041113CC0813099F020
:1000900028F08230E9F0833041F170C02AB381E06A
:1000A00090E002C0880F991F6A95E2F7809582233D
:1000B0008ABB80E0089527B381E090E002C0880FFA
:1000C000991F6A95E2F78095822387BB80E00895A7
:1000D00024B381E090E002C0880F991F6A95E2F78F
:1000E0008095822384BB80E0089521B381E090E075
:1000F00002C0880F991F6A95E2F78095822381BB21
:1001000080E008954130E1F5813091F028F08230AF
:10011000D9F0833029F136C02AB381E090E002C0E3
:10012000880F991F6A95E2F7822B8ABB80E00895B9
:1001300027B381E090E002C0880F991F6A95E2F72B
:10014000822B87BB80E0089524B381E090E002C059
:10015000880F991F6A95E2F7822B84BB80E008958F
:1001600021B381E090E002C0880F991F6A95E2F701
:10017000822B81BB80E0089581E0089581E008959D
:1001800081E0089581E00895813049F028F08230BF
:1001900049F0833051F00CC06ABB80E0089567BB22
:1001A00080E0089564BB80E0089561BB80E008951D
:1001B00081E00895683008F078C041113CC081307A
:1001C00099F028F08230E9F0833041F170C02BB310
:1001D00081E090E002C0880F991F6A95E2F7809550
:1001E00082238BBB80E0089528B381E090E002C0B9
:1001F000880F991F6A95E2F78095822388BB80E07B
:10020000089525B381E090E002C0880F991F6A9598
:10021000E2F78095822385BB80E0089522B381E0D8
:1002200090E002C0880F991F6A95E2F780958223BB
:1002300082BB80E008954130E1F5813091F028F0F3
:100240008230D9F0833029F136C02BB381E090E0C1
:1002500002C0880F991F6A95E2F7822B8BBB80E062
:10026000089528B381E090E002C0880F991F6A9535
:10027000E2F7822B88BB80E0089525B381E090E00F
:1002800002C0880F991F6A95E2F7822B85BB80E038
:10029000089522B381E090E002C0880F991F6A950B
:1002A000E2F7822B82BB80E0089581E0089581E02F
:1002B000089581E0089581E00895813049F028F0A3
:1002C000823049F0833051F00CC06BBB80E0089560
:1002D00068BB80E0089565BB80E0089562BB80E064
:1002E000089581E0089541E00E94DA00089540E019
:1002F0000E94DA0008951F93CF93DF93C82FD62F63
:10030000142F41E00E944100112339F0113051F4C3
:100310006D2F8C2F0E94730106C06D2F8C2F0E94B1
:10032000770101C081E0DF91CF911F91089540E0F6
:1003300061E080E00E94580240E061E081E00E94BC
:10034000580240E060E082E00E947B0140E061E012
:1003500082E00E947B0140E062E082E00E947B013B
:1003600062E082E00E94730160E082E00E94770117
:10037000D0E022C0CDECDC9FC12D1124C695C695DE
:10038000C6959C2F990F892F880F880F890F4D2FA5
:10039000481B61E080E00E943B024C2F61E081E05D
:1003A0000E943B022FEF84E39CE02150804090406C
:1003B000E1F700C00000DF5FD031E0F262E082E0F0
:1003C0000E94770161E082E00E947301D0E022C0C8
:1003D000CDECDC9FC12D1124C695C695C6959C2FEA
:1003E000990F892F880F880F890F4D2F481B61E0C7
:1003F00080E00E943B024C2F61E081E00E943B02C2
:100400002FEF84E39CE0215080409040E1F700C052
:100410000000DF5FD630E0F260E082E00E9473010E
:1004200061E082E00E947701D0E022C0CDECDC9F49
:10043000C12D1124C695C695C6959C2F990F892F5D
:10044000880F880F890F4D2F481B61E080E00E94C4
:100450003B024C2F61E081E00E943B022FEF84E3DE
:100460009CE0215080409040E1F700C00000DF5F39
:10047000D031E0F275CF4A30B8F4662359F06130DC
:10048000A9F4E42FF0E0E05AFF4F60810E945D0183
:1004900080E00895E42FF0E0E05AFF4F608160951E
:1004A0000E945D0180E0089581E0089581E0089553
:1004B0001F93CF93DF93C82FD62F142F6FEF0E9477
:1004C000C400811106C0412F6D2F8C2F0E943B026A
:1004D00001C081E0DF91CF911F910895F894FFCF83
:0A04E0003F065B4F666DFD077F6F5E
:00000001FF
