S0110000736E616B6547616D652E7372656387
S11300000C942A000C943F000C943F000C943F0085
S11300100C943F000C943F000C943F000C943F0060
S11300200C943F000C943F000C943F000C943F0050
S11300300C943F000C943F000C943F000C943F0040
S11300400C943F000C943F000C943F000C943F0030
S11300500C943F0011241FBECFE5D8E0DEBFCDBF16
S113006010E0A0E6B0E0ECE7F4E002C005900D92E9
S1130070A836B107D9F70E9415020C943C020C94DF
S1130080000041E060E083E00E947C018FE99FE092
S11300900197F1F700C0000040E060E083E00E94B7
S11300A07C0180E00895CF93C82F40E062E083E0B4
S11300B00E947C0140E061E083E00E947C016C2F9F
S11300C082E00E94FF010E94410080E0CF910895E8
S11300D0CF93C82F41E062E083E00E947C0140E0BE
S11300E061E083E00E947C016C2F82E00E94FF01AA
S11300F00E944100CF9108956FEF82E00E94660153
S113010041E060E083E00E94E30041E062E083E0DC
S11301100E94E30041E061E083E00E94E3002FEFEE
S113012089EF90E0215080409040E1F700C000004A
S11301308CE30E9453008CE00E94530081E00E94F3
S1130140530086E00E9453000895811105C080E8A1
S1130150860F0E94530006C0813021F480EC860F84
S11301600E9453008FEC97E00197F1F700C0000064
S11301700895EF92FF920F931F93CF93DF938C0117
S1130180D62FF42EE22E862F880F880F880F805CDE
S11301900E945300C0E007C0F801EC0FF11D8081FC
S11301A00E946800CF5FC830B8F36E2D8F2D0E9477
S11301B0A5008D2F0E946800DF91CF911F910F91B0
S11301C0FF90EF900895683008F078C041113CC06A
S11301D0813099F028F08230E9F0833041F170C029
S11301E02AB381E090E002C0880F991F6A95E2F774
S11301F0809582238ABB80E0089527B381E090E054
S113020002C0880F991F6A95E2F78095822387BB05
S113021080E0089524B381E090E002C0880F991F24
S11302206A95E2F78095822384BB80E0089521B328
S113023081E090E002C0880F991F6A95E2F78095EB
S1130240822381BB80E008954130E1F5813091F053
S113025028F08230D9F0833029F136C02AB381E006
S113026090E002C0880F991F6A95E2F7822B8ABB3F
S113027080E0089527B381E090E002C0880F991FC1
S11302806A95E2F7822B87BB80E0089524B381E06E
S113029090E002C0880F991F6A95E2F7822B84BB15
S11302A080E0089521B381E090E002C0880F991F97
S11302B06A95E2F7822B81BB80E0089581E008957E
S11302C081E0089581E0089581E00895813049F046
S11302D028F0823049F0833051F00CC06ABB80E0D2
S11302E0089567BB80E0089564BB80E0089561BB16
S11302F080E0089581E00895683008F078C04111E5
S11303003CC0813099F028F08230E9F0833041F12B
S113031070C02BB381E090E002C0880F991F6A95EA
S1130320E2F7809582238BBB80E0089528B381E0B7
S113033090E002C0880F991F6A95E2F780958223A6
S113034088BB80E0089525B381E090E002C0880F67
S1130350991F6A95E2F78095822385BB80E0089512
S113036022B381E090E002C0880F991F6A95E2F7FA
S11303708095822382BB80E008954130E1F581308D
S113038091F028F08230D9F0833029F136C02BB3B4
S113039081E090E002C0880F991F6A95E2F7822BF2
S11303A08BBB80E0089528B381E090E002C0880F01
S11303B0991F6A95E2F7822B88BB80E0089525B3E4
S11303C081E090E002C0880F991F6A95E2F7822BC2
S11303D085BB80E0089522B381E090E002C0880FDD
S11303E0991F6A95E2F7822B82BB80E0089581E031
S11303F0089581E0089581E0089581E008958130B1
S113040049F028F0823049F0833051F00CC06BBBC6
S113041080E0089568BB80E0089565BB80E008959E
S113042062BB80E0089581E008950E94390220E0D3
S113043040E060E080E690E00E94B900C0E0D0E0D7
S113044014C081E00E9453006C2F80E00E94A5003C
S113045080E00E9468002FEF84E39CE021508040FC
S11304609040E1F700C000002196C431D1054CF35F
S10F0470E5CF0E947C000895F894FFCFB3
S10B047C0004021F0204000049
S9030000FC
